:020000040800F2
:10000000E00B0020CD010008450400083D04000875
:10001000410400080D030008F70600080000000076
:10002000000000000000000000000000990400082B
:10003000110300080000000075040008AD05000869
:10004000E7010008E7010008E7010008E7010008F0
:10005000E7010008E7010008E7010008E7010008E0
:10006000E7010008E7010008E7010008E7010008D0
:10007000E7010008E7010008E7010008E7010008C0
:10008000E7010008E7010008E7010008E7010008B0
:10009000E7010008E7010008E7010008E7010008A0
:1000A000E7010008E7010008E7010008E701000890
:1000B000E7010008E7010008E7010008E701000880
:1000C000E7010008E7010008E7010008E701000870
:1000D000E701000811060008E7010008E701000831
:1000E000E7010008E7010008E7010008E701000850
:1000F000E7010008E7010008E7010008E701000840
:10010000E7010008E7010008E7010008E70100082F
:10011000E7010008E7010008E7010008E70100081F
:10012000E7010008E7010008E7010008E70100080F
:1001300000F002F800F03AF80AA090E8000C8244BF
:100140008344AAF10107DA4501D100F02FF8AFF29C
:10015000090EBAE80F0013F0010F18BFFB1A43F0A5
:1001600001031847EC4B00000C4C0000103A24BF70
:1001700078C878C1FAD8520724BF30C830C144BF0C
:1001800004680C607047000000230024002500264E
:10019000103A28BF78C1FBD8520728BF30C148BFEA
:1001A0000B6070471FB51FBD10B510BD00F07CF887
:1001B0001146FFF7F7FF00F0D9FB00F09AF803B4FF
:1001C000FFF7F2FF03BC00F098FA000009488047EF
:1001D00009480047FEE7FEE7FEE7FEE7FEE7FEE729
:1001E000FEE7FEE7FEE7FEE704480549054A064B41
:1001F00070470000B105000831010008E00500204B
:10020000E00B0020E0070020E007002070474FF0DF
:1002100000020429C0F0128010F0030C00F01B80D3
:10022000CCF1040CBCF1020F18BF00F8012BA8BFE1
:1002300020F8022BA1EB0C0100F00DB85FEAC17CA5
:1002400024BF00F8012B00F8012B48BF00F8012B58
:1002500070474FF0000200B5134694469646203989
:1002600022BFA0E80C50A0E80C50B1F12001BFF46F
:10027000F7AF090728BFA0E80C5048BF0CC05DF8D5
:1002800004EB890028BF40F8042B08BF704748BF23
:1002900020F8022B11F0804F18BF00F8012B704797
:1002A0007047704770477047754600F02BF8AE46B0
:1002B00005006946534620F00700854618B020B572
:1002C000FFF792FFBDE820404FF000064FF0000717
:1002D0004FF000084FF0000B21F00701AC46ACE8EE
:1002E000C009ACE8C009ACE8C009ACE8C0098D465B
:1002F000704710B50446AFF300802046BDE81040BB
:10030000FFF75DBF004870478005002000BFFEE793
:100310007047002100E0491C8142FCD370472DE961
:10032000F04102460025002600200023002400277B
:1003300091F803C00CF00F0591F803C00CF0100CFD
:10034000BCF1000F03D091F802C04CEA050591F80A
:1003500000C0BCF1000F31D0146800202BE04FF03A
:10036000010C0CFA00F3B1F800C00CEA03069E423F
:1003700020D183004FF00F0C0CFA03F7BC4305FAB1
:1003800003FC4CEA040491F803C0BCF1280F06D129
:100390004FF0010C0CFA00FCC2F814C00AE091F80E
:1003A00003C0BCF1480F05D14FF0010C0CFA00FC62
:1003B000C2F810C0401C0828D1D31460B1F800C0A6
:1003C000BCF1FF0F34DD546800202EE000F1080C72
:1003D0004FF0010808FA0CF3B1F800C00CEA03066C
:1003E0009E4221D183004FF00F0C0CFA03F7BC435F
:1003F00005FA03FC4CEA040491F803C0BCF1280F91
:1004000005D100F1080C08FA0CF8C2F8148091F834
:1004100003C0BCF1480F07D100F1080C4FF00108F0
:1004200008FA0CF8C2F81080401C0828CED354609B
:10043000BDE8F081416170470161704700BFFEE790
:1004400000BFFEE77047000008B50121082000F05A
:1004500013F8C020ADF8000014208DF8030003202D
:100460008DF8020069460248FFF759FF08BD0000F9
:10047000000C01407047000029B1064A926902430E
:10048000044B9A6104E0034A92698243014B9A61EA
:100490007047000000100240704710B500F002F8ED
:1004A00010BD00000CB5002001900090334800689A
:1004B00040F480303149086000BF3048006800F4E3
:1004C000003000900198401C0190009818B90198E4
:1004D000B0F5A06FF1D12948006800F4003010B1E8
:1004E0000120009001E0002000900098012843D1F5
:1004F0002348006840F01000214908600846006861
:1005000020F0030008600846006840F00200086020
:100510001A484068194948600846406848600846DB
:10052000406840F4806048600846406820F47C10D1
:1005300048600846406840F4E81048600846006893
:1005400040F08070086000BF0C48006800F0007048
:100550000028F9D00948406820F0030007494860A6
:100560000846406840F00200486000BF0348406809
:1005700000F00C000828F9D10CBD0000001002406A
:1005800000200240042808D14FF0E021096941F021
:1005900004014FF0E022116107E04FF0E02109690A
:1005A00021F004014FF0E022116170477047000014
:1005B00010B51348006840F0010011490860084672
:1005C0004068104908400E494860084600680E49D6
:1005D00008400B4908600846006820F48020086045
:1005E0000846406820F4FE0048604FF41F00886011
:1005F000FFF753FF4FF000600449086010BD000092
:10060000001002400000FFF8FFFFF6FE08ED00E0DA
:1006100010B540F225511D4800F03EF810B31B48BC
:1006200000F064F8C4B21A48008800F40040C8B969
:100630001748008800F4804060B10A2C03D00020E5
:100640001349088020E01248008840F40040104917
:10065000088019E00D2C06D10D48008840F4804038
:100660000B49088010E00A480088C0F30D000949D2
:100670000C5407480088401C05490880084600883B
:10068000C72801DD0020088010BD000000380140AF
:100690001C000020B800002070B502460024002392
:1006A0000025002040F66A16B14200D100BFC1F318
:1006B000421501F01F03012606FA03F3012D02D1B2
:1006C0009689334006E0022D02D1168A334001E0BC
:1006D000968A33400C12012606FA04F41688344038
:1006E00013B10CB1012000E0002070BD01468888E4
:1006F000C0F30800704700BFFEE700BF704700006E
:1007000010B56FF00400FFF73DFF0A4800680A4982
:10071000B0FBF1F0094908700846007800EB400191
:10072000C1EBC0104FF6FF7101EAC0000449088018
:1007300010BD00000000002000127A00140000200C
:10074000160000200146114A12884A434FF0E02368
:100750005A6100229A611A46126942F001021A6136
:1007600000BF4FF0E022106900F001021AB100F45E
:100770008032002AF5D04FF0E022126922F0010207
:100780004FF0E0231A6100229A61704716000020A2
:100790000146114A12784A434FF0E0235A61002281
:1007A0009A611A46126942F001021A6100BF4FF0C5
:1007B000E022106900F001021AB100F48032002A30
:1007C000F5D04FF0E022126922F001024FF0E02351
:1007D0001A6100229A6170471400002010B5044687
:1007E00000224C21204601F0F1FB10BD10B504465B
:1007F00000224D21204601F0E9FB10BD10B5044652
:100800002068427B2D21204601F0E0FB10BD10B591
:10081000044601224C21204601F0D8FB01224D2143
:10082000204601F0D3FB2046FFF7E8FF10BD10B5CE
:100830000446204600F01BF82046FFF7DFFF204665
:1008400000F00AF8204600F012F82046FFF7D6FF25
:100850002046FFF7C3FF10BD10B5044601224C210E
:10086000204601F0B3FB2046FFF7C8FF10BD10B5CE
:10087000044601224D21204601F0A8FB10BD10B511
:10088000044694F8250040B12046FFF7F0FF2046CB
:10089000FFF7B4FF2046FFF7DFFF2046FFF7E7FF33
:1008A0002046FFF7A3FF2046FFF7A8FF2046FFF7EB
:1008B00095FF012084F8250010BD10B504462046A0
:1008C000FFF794FF2046FFF799FF2046FFF7C4FF8C
:1008D0002046FFF7CCFF2046FFF790FF002084F86A
:1008E000250010BD70B505460C461CB12846FFF723
:1008F000BEFF02E02846FFF779FF2846FFF77EFF9C
:100900002846FFF7A9FF2846FFF768FF70BD70B5BE
:1009100005460C4604F080012846FFF7E3FF04F08B
:1009200040012846FFF7DEFF04F020012846FFF7CC
:10093000D9FF04F010012846FFF7D4FF04F00801A6
:100940002846FFF7CFFF04F004012846FFF7CAFF4F
:1009500004F002012846FFF7C5FF04F00101284614
:10096000FFF7C0FF2846FFF762FF70BD08B5012101
:100970004820FFF781FD2020ADF8000010208DF801
:10098000030003208DF8020069464748FFF7C7FCC3
:1009900020214548FFF750FD2020ADF800006946B2
:1009A0004248FFF7BCFC20214048FFF745FDFFF718
:1009B000A7FE3F4800F082F974E020213A48FFF793
:1009C00039FD20213948FFF737FD3A48FFF7A1FCF0
:1009D00020213548FFF730FD20213448FFF72AFD5C
:1009E0003448FFF796FC324800F05AF900BF012165
:1009F0002F4800F0DBF900212D4800F0D4F92E49F2
:100A00002B4800F0C0F92DA314220021284800F043
:100A100027F90121264800F0C6F92749244800F0AB
:100A2000B2F927A308221521214800F019F9002165
:100A30001F4800F0B8F920491D4800F0A4F921A38F
:100A40001E2233211A4800F00BF91FA31E22432156
:100A5000174800F005F92F2323220221144800F043
:100A600083F82F2324220321114800F07DF80C2362
:100A700020222D210E4800F005F90C2320222E21E2
:100A80000B4800F0FFF81149094800F07CF910A369
:100A900036220121064800F0E3F8054800F045F948
:100AA0000028A4D189E70000000C01400018014093
:100AB00024000020C0C62D00DB2A000855000000DD
:100AC0003800000067000000B20000008F2400081A
:100AD0006769746875622E636F6D2F6F6C696B72D6
:100AE0006175732F753867320000000070B50446D9
:100AF0002068057C94F838004543ED002946606B7A
:100B0000FFF785FB70BD2DE9F04104460D46164602
:100B10001F467020005D30B101280AD002280ED097
:100B2000032818D111E02046E16D8847304486B291
:100B300011E02046E16D8847281A85B20BE0204677
:100B4000E16D8847301A86B205E02046E16D88479E
:100B5000284485B200BF00BF3B46324629462046A6
:100B600000F0CFFCBDE8F081F8B504460D4616460E
:100B70001F4600203B46324629460090204600F0A2
:100B800001F8F8BD7FB582B004460A9D94F88C0048
:100B9000002863D0BDF8140000285FD0BDF8140011
:100BA00001281CDD022D0CD1BDF80C00BDF814107D
:100BB000401A80B20390BDF80C00401C80B2039034
:100BC0000DE0032D0BD1BDF81000BDF81410401A34
:100BD00080B20490BDF81000401C80B2049005F073
:100BE0000105C5B9B4F84C00BDF81010884201DD0C
:100BF00006B070BDB4F84E00BDF81010884200DC9D
:100C0000F6E7B4F84A30B4F8482005A903A800F084
:100C1000E2F9C0B9ECE7B4F84800BDF80C1088421E
:100C200000DDE5E7B4F84A00BDF80C10884200DCAE
:100C3000DEE7B4F84E30B4F84C2005A904A800F063
:100C4000CAF900B9D4E70095206BBDF81430BDF89F
:100C50001020BDF80C1086682046B04700BFC7E7DB
:100C60002DE9F04104460D4616461F4604486060D3
:100C70003B4632462946204600F0ACFABDE8F081FA
:100C8000E31A0008F8B504460D4616461F46012033
:100C90003B463246294600902046FFF773FFF8BDD9
:100CA00010B5044694F8930010B12046FFF71EFFDC
:100CB0000021204600F059F810BD000010B5044690
:100CC000084B094A0949204600F0B8F8204600F0D0
:100CD000B8FE0021204600F0C6FE2046FFF706FFC2
:100CE00010BD0000351F0008431B00081C20000831
:100CF0002DE9F04104460D4616461F46DDF81880E2
:100D0000B4F84E10B4F84C004346324600F08FFC65
:100D100010B90020BDE8F081B4F84A10B4F84800DA
:100D20003B462A4600F083FCF4E770B504462046B3
:100D300000F084FD94F8395094F838002844C5B286
:100D40002068407CA84204DC204600F083FE00209E
:100D500070BD94F8930010B12046FFF7C7FE2946F6
:100D6000204600F002F80120F2E770B504460D4677
:100D700084F83950206B016820468847206B416811
:100D80002046884770BD70B504460D46A06DA84248
:100D900008D0A565294604F1740000F0DFFC204668
:100DA00000F06EF870BD7022115470476D2211541E
:100DB000704700000149C1657047000065120008D6
:100DC00010B50446002030342084A0844FF6FF7014
:100DD0006084E08454F8300941682046884710BD9B
:100DE0002DE9F04104460D4616461F46DDF81880F1
:100DF0000020A065E762656384F8386084F83900F4
:100E000000216D2001550020743460776076012048
:100E1000A077E07744F8448C54F8440C743C0168A3
:100E2000204688472046FFF7CBFF2046FFF7C2FF4A
:100E3000002170200155BDE8F08100002DE9FC4142
:100E400007460C4615461E462B460A4A0A493846AE
:100E5000009600F012FE01A800F078FC8046074BD7
:100E600000949DF8042041463846FFF7B9FFBDE8DD
:100E7000FC810000951C0008D51D00085F160008C5
:100E8000816D01B970478121095C80F88E10822143
:100E9000095C80F88F1090F88D1099B390F88D1040
:100EA000012914D190F98E2090F983108A4203DA37
:100EB0008321095C80F88E1090F98F2090F98410BE
:100EC0008A421FDD8421095C80F88F101AE090F9B6
:100ED0007E2090F98010114490F98E20914207DD18
:100EE0007E210A5C8021095C114449B280F88E1091
:100EF00090F98F2090F980108A4203DD8021095CEF
:100F000080F88F1000BFBDE710B523B1012B05D0CD
:100F1000022B09D105E04418A0B208E0841AA0B25F
:100F200005E0441AA0B202E08418A0B200BF00BFDE
:100F300010BD10B523B1012B05D0022B09D105E05E
:100F40008418A0B208E04418A0B205E0841AA0B248
:100F500002E0441AA0B200BF00BF10BD38B504467D
:100F60005034E08800906388A28834F850192046F5
:100F7000FFF7BEFE18B9002084F88C002AE001209B
:100F800084F88C00B4F84800B4F85010884203DAB2
:100F9000B4F85000A4F84800B4F84A00B4F852106D
:100FA000884203DDB4F85200A4F84A00B4F84C00BB
:100FB000B4F85410884203DAB4F85400A4F84C0092
:100FC000B4F84E00B4F85610884203DDB4F8560069
:100FD000A4F84E0038BD70B505460E461446298863
:100FE0000A463088104482B2914206DD994203DA03
:100FF0001A46501E82B200E02146994201DB0020D1
:1010000070BDA24201DC0020FAE7A14200DA2146CD
:101010009A4200DD1A462980501A82B2328001209D
:10102000EEE72DE9F84304460E4615461F46DDF867
:101030002080E08F281A85B2CDF800803B462A46F2
:1010400031462046D4F82CC0E047BDE8F8832DE9AE
:10105000F84305460E4691461F46DDF82080B5F858
:101060004440A01B84B208F0010010B9E01B84B218
:1010700001E0601E84B23B464A4621462846CDF830
:101080000080FFF7CEFFBDE8F8832DE9F843044662
:101090000D4616461F46DDF820803B46324629465F
:1010A0002046CDF80080FFF7BCFFBDE8F8832DE9AE
:1010B000F84F06460F46904699460A9DBA46B6F83E
:1010C0004640A4EB080084B2601E84B2681CC5B21E
:1010D000022D05D1A4EB090084B2601C84B2002566
:1010E0004B465246214630460095FFF79AFFBDE831
:1010F000F88F2DE9F84F0646894692461F46DDF8DF
:101100002880B6F84650A5EB0A0085B2B6F84440F0
:10111000A4EB090084B2B8F1000F04D1681E85B2B7
:10112000E01B84B206E0B8F1010F03D1601E84B267
:10113000E81B85B23B462A4621463046CDF8008062
:10114000FFF76FFFBDE8F88F2DE9F84F05460E4613
:1011500017469846DDF82890BA46B5F84440A01BDB
:1011600084B2B9F1000F09D1601E84B2A4EB08006B
:1011700084B2601C84B24FF0010903E0601E84B2A7
:101180004FF000094346224651462846CDF80090CC
:10119000FFF747FFBDE8F88F2DE9F843054689467C
:1011A00016461F46DDF82080B5F84640A01B84B2E5
:1011B00008F0010010B1E01B84B201E0601E84B2AF
:1011C0003B46224649462846CDF80080FFF729FFD6
:1011D000BDE8F8832DE9F04706460F46904699464C
:1011E000304600F017FF4FF0000A00BF99F80010DA
:1011F00030467268904705464FF6FF718D4200D128
:101200002CE009F101094FF6FE708542EED02B4625
:10121000424639463046FFF776FC04467020805D32
:1012200030B1012807D002280AD0032810D10AE0E3
:10123000381987B20CE008EB04001FFA80F807E0C9
:10124000381B87B204E0A8EB04001FFA80F800BF47
:1012500000BF0AEB04001FFA80FAC7E700BF504640
:10126000BDE8F087014600207047F0B507460C4600
:101270002146384600F00BF845B20126601EC4B284
:1012800006FA04F046B2A81B45B22846F0BD70B578
:1012900002460C46117B1568287808410B461D193B
:1012A000EBB2082B0EDB08256E1AF5B21668761C19
:1012B000166016683678AE400643F0B2A3F1080611
:1012C000F3B200BF0125A5406D1E2840137370BD09
:1012D0002DE9F34F85B0054605F1600428460699CF
:1012E00000F085F995F96B607A20415D2046FFF7A3
:1012F000BCFF02907B20415D2046FFF7B6FF83468E
:101300007C20415D2046FFF7B0FF019094F90A0070
:10131000002871DD237C06EB0B0149424AB2A0880C
:101320000299FFF7F1FDA080237C06EB0B014942F7
:101330004AB2E0880299FFF7FCFDE080A788B4F884
:101340000680B946C246207C30B101280ED0022862
:101350001AD0032842D12EE094F90A0048441FFA1B
:1013600080F90AEB06001FFA80FA37E0B81B87B253
:10137000781C87B209F101001FFA80F994F90A007C
:1013800050441FFA80FA29E094F90A00381A87B20B
:10139000781C87B209F101001FFA80F9A8EB06005A
:1013A0001FFA80F808F101001FFA80F80AF1010025
:1013B0001FFA80FA12E009EB06001FFA80F994F98F
:1013C0000A00A8EB00001FFA80F808F101001FFADC
:1013D00080F80AF101001FFA80FA00BF00BF4B46F7
:1013E000424639462846CDF800A0FFF781FC20B9D7
:1013F000019807B0BDE8F08F29E0002020726072EC
:1014000000BF7620415D2046FFF741FF0490772022
:10141000415D2046FFF73BFF039000BF00222846B6
:10142000049900F016F801222846039900F011F8FB
:1014300001212046FFF72BFF0028EFD194F9090086
:10144000B042DEDB00BF00BFA07B85F892000198B0
:10145000CFE72DE9FF5F80468A46934608F1600496
:101460005546277A94F8099000BFA67AF01BC6B2B9
:101470000396B54200DA0395A0880290E0880190B7
:10148000237C4FFA89F279B20298FFF73DFD029072
:10149000237C4FFA89F279B20198FFF74AFD019057
:1014A000BBF1000F0BD0A07B88F89200207C00904D
:1014B0004046DDE90213019AFFF764FB0CE0607B14
:1014C00050B9E07B88F89200207C00904046DDE92E
:1014D0000213019AFFF756FBB54200DA07E0A81B9A
:1014E000C5B2002709F1010000F0FF09BDE700BF08
:1014F0007819C7B278B220724FFA89F06072BDE8ED
:10150000FF9F2DE9F04704460D4616461F464FF053
:10151000000964200553662006533946204600F032
:1015200011F88046B8F1000F05D041462046FFF77C
:10153000CFFE1FFA80F94846BDE8F08702460A440C
:10154000107870472DE9F04107460D46BC6D173401
:10155000FF2D18DC612D03DB8820C05B044404E010
:10156000412D02DB8620C05B044400BF607800B9D7
:1015700008E02078A84202D1A01CBDE8F081607884
:101580000444F3E725E08A20C05B0444A04600BF82
:101590000021404600F01FF804440221404600F0BC
:1015A0001AF8064608F10408AE42F1DB00BF2678BF
:1015B0004FF6FF7000EA06266078064306B906E09B
:1015C000AE4201D1E01CD8E7A0780444EFE700BFA9
:1015D00000BF0020D1E702460A441078521C4FF6A3
:1015E000FF7303EA00201378034498B2704770B584
:1015F00005460E4605F16004266000202073782021
:10160000415D2046FFF743FE40B2A0727920415D64
:101610002046FFF73CFE40B2E07295F89200A073BE
:10162000A07B08B9012000E00020E07370BD10B578
:1016300004468A4209DAA34201DD012010BD9A4224
:1016400001DD0120FAE70020F8E7A34205DD9A4218
:1016500001DD0120F2E70020F0E70020EEE72DE9B0
:10166000F04704468946DDF82080D1B201F0070139
:10167000012606FA01FA0AF0FF060027BC4694F894
:1016800092A0BAF1010F00DC374694F892A0BAF1AB
:10169000010F00D0B446154625F00705D4F800A088
:1016A0009AF810A00AFB05FA1FFA8AF5606B284425
:1016B0004844B8F1000F14D100BF90F800A04AEAE6
:1016C000070A80F800A090F800A08AEA0C0A80F8C7
:1016D00000A0401CA3F1010A1FFA8AF3002BECD1F1
:1016E00032E000BF90F800A04AEA070A80F800A0A4
:1016F00090F800A08AEA0C0A80F800A001F1010A23
:101700000AF0FF0101F00701A3F1010A1FFA8AF3B1
:1017100081B9B4F83AA0504494F892A0BAF1010FFC
:1017200000DC012794F892A0BAF1010F0AD04FF023
:10173000010C07E04FEA476A4FEA1A674FEA4C6A22
:101740004FEA1A6C002BCDD1BDE8F0870146082086
:1017500008700148704700008001002070B5044601
:101760000D4600212846FFF7E9FE2070012128469A
:10177000FFF7E4FE607002212846FFF7DFFEA0704D
:1017800003212846FFF7DAFEE07004212846FFF720
:10179000D5FE207105212846FFF7D0FE6071062195
:1017A0002846FFF7CBFEA07107212846FFF7C6FEAB
:1017B000E07108212846FFF7C1FE20720921284662
:1017C000FFF7BCFE40B260720A212846FFF7B6FE62
:1017D00040B2A0720B212846FFF7B0FE40B2E07283
:1017E0000C212846FFF7AAFE40B220730D2128469F
:1017F000FFF7A4FE40B260730E212846FFF79EFE5D
:1018000040B2A0730F212846FFF798FE40B2E07364
:1018100010212846FFF792FE40B22074112128467D
:10182000FFF7D9FE608213212846FFF7D4FEA0827D
:1018300015212846FFF7CFFEE08270BD2DE9F0416B
:101840000446002594F8387094F83960206890F8C0
:10185000118000BF32462946204600F00AF8681C75
:10186000C5B2701CC6B2BD4201DA4645F2DBBDE826
:10187000F0812DE9F84305460E469146286890F818
:10188000108034466F6B04FB08F084B24FF6FF7093
:1018900000EAC404274443464A46002128460097EC
:1018A00000F0B6F8BDE8F88310B51A3050F81A2CDD
:1018B000817F4FF6FF7303EAC1014184117C03EA83
:1018C000C1010184C17F03EAC1018184817FC37F9B
:1018D0001A380B44547CA34204DD537C90F8394001
:1018E0001B1B99B24FF6FF7303EAC10130F83E3F6C
:1018F00043804388838083880B448380938AC3809A
:10190000D38A03813E3810BD10B504462046FFF748
:10191000CBFF10BD10B504462046FFF7C5FF206879
:10192000808AA4F846002068C08AA4F8440010BD4C
:1019300010B504462046FFF7B7FF10BD10B50446AA
:101940002046FFF7B1FF2068808AA4F8460020688F
:10195000C08AA4F8440010BD10B5044600204034ED
:101960002081A08860812088A0816088E081403C3F
:101970002046FFF7F3FA10BD10B5044634F8400FC7
:101980002081608860810020A081E088E081403C67
:101990002046FFF7E3FA10BD10B50446002042349C
:1019A000E0806088208100206081A08834F842199E
:1019B000884205DB4234A0882188401A6081423C7D
:1019C0004034E0882188401AE081403C2046FFF7FF
:1019D000C5FA10BD10B5044600204234E08060888E
:1019E00034F84219884205DB423460882188401A65
:1019F000E080423C4034A0882188401A6081002069
:101A0000A081E088E081403C2046FFF7A7FA10BDA6
:101A10002DE9FC4104460D4616461F46DDF82080A0
:101A20008DF805508DF806608DF80470CDF80080B3
:101A30006B4601220F212046D4F808C0E047BDE8DC
:101A4000FC8170B5044600231A460A212046A56889
:101A5000A84770BD70B5044600231A4610212046E1
:101A6000A568A84770BD70B504460D4600232A46F8
:101A70000B212046A668B04770BD2DE9F041044611
:101A80000D4617461E46DDF81880204600F00AF87D
:101A9000A560E7602661C4F81480204600F018F8BD
:101AA000BDE8F0810021016008498160C1600161E9
:101AB0004161002180F8231080F826108161FF2108
:101AC00080F8241080F82810704700002D1F0008AF
:101AD00070B5044600231A4609212046A568A84788
:101AE00070BD024609B10A2902D14FF6FF70704756
:101AF0000846FCE770B5044600231A461921204623
:101B00002569A84770BD13B5044601AA01212046E6
:101B100000F001F81CBD2DE9F04104460D461646C3
:101B200033462A46172120462769B847BDE8F08189
:101B300070B5044600231A46182120462569A84797
:101B400070BD2DE9F04106460F4614469846182F01
:101B50001BD004DC142F13D0172F23D104E0192F2E
:101B60001CD0202F1ED10FE0454606E029783046D4
:101B7000FEF7CDFE6D1C601EC4B2002CF6DC14E036
:101B80003046FEF744FE10E00FE03046FEF777FEE9
:101B900096F824103046FEF7BAFE06E03046FEF70F
:101BA0008CFE02E00020BDE8F08100BF0120FAE7D2
:101BB00070B5044600231A4619212046E568A84757
:101BC00070BD70B504460D4600232A4616212046F6
:101BD000E668B04770BD70B504460D4600232A463E
:101BE00015212046E668B04770BD2DE9F041044656
:101BF0000D46164633462A4617212046E768B84761
:101C0000BDE8F081F8B505460C4600BF2678641C97
:101C1000182E21D006DC152E09D0162E08D0172E2E
:101C20002CD110E0192E18D0FE2E27D11CE000BFB9
:101C30002078009000239DF8002031462846EF6868
:101C4000B847641C1BE0207800906A4601212846B2
:101C5000FFF7CBFF641C12E000BF00231A46314699
:101C60002846EF68B8470AE0207800909DF80020E9
:101C70002921284600F0AAF9641C00E0F8BDC5E758
:101C800070B5044600231A4618212046E568A84787
:101C900070BD00002DE9F04104460F4615469846F8
:101CA000A7F11400062858D2DFE800F03903181D08
:101CB000494D2C48007810B12046FFF71BFF204605
:101CC000FFF736FF00212046FFF71DFF294620467B
:101CD000FFF719FF01202349087040E029462046FC
:101CE000FFF711FF3BE01F48007810B12046FFF7D7
:101CF00001FF464608E032461821204600F073F9FD
:101D0000A5F11800C5B21836182DF4DC3246294664
:101D1000204600F068F90020124908701FE094F88E
:101D20002400FF2802D1782084F8240043462A4664
:101D300039462046D4F810C0E047BDE8F0810020C5
:101D4000084908700BE00748007810B12046FFF7FB
:101D5000D1FE00200349087001E00020EDE700BF3C
:101D60000120EAE71E00002070B5044600231A4651
:101D7000282120466569A84700231A4614212046D9
:101D8000E568A84701224B21204600F01FF9206892
:101D900002792921204600F019F900224B21204622
:101DA00000F014F9206802792921204600F00EF98C
:101DB00001224B21204600F009F9206842792921AF
:101DC000204600F003F970BD01600268927C80F843
:101DD000222070472DE9F04105460C4616461F4665
:101DE0003B4632462146284600F01EF810B101203D
:101DF000BDE8F081092C09D00A2C0CD12846FFF748
:101E0000B3FF07492846FFF7FDFE06E005492846CF
:101E1000FFF7DAFF01E00020EAE700BF0120E7E773
:101E2000642000088C2100082DE9F047044688460C
:101E300015461E46B8F10B0F09D0B8F10D0F11D0A1
:101E4000B8F10E0F21D0B8F10F0F60D12CE025B9F9
:101E500032492046FFF7D6FE03E031492046FFF71E
:101E6000D1FE57E045B92F492046FFF7CBFE206849
:101E7000807C84F8220007E02B492046FFF7C2FE51
:101E80002068C07C84F8220044E02046FFF7F8FE7A
:101E900081212046FFF79FFE29462046FFF791FE4D
:101EA0002046FFF785FE35E02046FFF7E9FE77790B
:101EB000F806070E94F822003844C7B240212046A5
:101EC000FFF789FE102040EA27112046FFF783FE26
:101ED00007F00F012046FFF774FEB07940F0B00123
:101EE0002046FFF76EFE00BF96F80490D6F800A0DB
:101EF0004FEAC960010E52462046FFF776FE681E83
:101F0000C5B2002DF0DC2046FFF752FE02E00020B3
:101F1000BDE8F08700BF0120FAE700006521000856
:101F20006A2100086F2100087621000810B50446D8
:101F3000002010BD2DE9F04105460E4614461F460F
:101F40002C2E13D008DC282E0DD0292E11D02A2EAD
:101F50000DD02B2E30D10BE02D2E0ED04C2E15D0C7
:101F60004D2E29D11DE0FEF76FFA29E028E027E089
:101F700026E02046FEF7E6FB22E0022C01DC0521EC
:101F800000E001210846FEF703FC19E024B94021D6
:101F90000D48FEF74FFA03E040210B48FEF74CFADC
:101FA0000EE024B980210848FEF744FA03E08021BE
:101FB0000548FEF741FA03E0012085F8270000BF3D
:101FC00000BF0120BDE8F081000C01402DE9F04187
:101FD00004460D46164600233246294620466769C8
:101FE000B847BDE8F0812DE9F04104460D4616469C
:101FF0002046FFF79DFD40212046FFF784FD334634
:102000002A46172120462769B8472046FFF772FD68
:10201000BDE8F081002180F82610704709190008FA
:10202000591900088B1000081519000879190008C3
:10203000AF1000083119000899190008F3100008C2
:102040003D190008D51900084911000809190008B0
:10205000591900084F1000080919000859190008FB
:10206000991100081815AE15D5168015A8163F153C
:10207000D316001540158D16141520160015A11540
:10208000C815DA1612158116CF15D916F115DB16FB
:1020900040152E15A415A619FF1815AE15D51680D6
:1020A00015A8163F15D316001540158D16141520CA
:1020B000160015A115C815DA1612158116EF15D9D7
:1020C00016A115DB1600152E15A415A619FF181557
:1020D000AE15D5168015A8163F15D3160015401558
:1020E0008D16141520160015A115C815DA1602153F
:1020F0008116CF15D916F115DB1640152E15A4152E
:10210000A619FF1815AE15A415D5165015A8163F1B
:1021100015D31600154015AD168B15D9162215DBF3
:1021200016351532158116FF15A615DA161219FF88
:102130001815AE15D5168015A8163F15D31600151F
:1021400040158D16141520160015A115C015DA16A8
:1021500012158116CF15D916F115DB1640152E155F
:10216000A415A619FF1815AF19FF1815AE19FF18F9
:1021700015A115C819FF1815A015C019FF1815A12C
:1021800015C019FF1815A015C819FF000001140A81
:102190006464323200127A000004289610080000AD
:1021A000800040000001140A6464323200093D00DE
:1021B0000004289610080202800040005F0002021E
:1021C0000303020404040600FF05FF05FF00E90104
:1021D000D302B6200580CD002106E9C8AC00220656
:1021E00093CB2415230AACC8A434541A2A01240919
:1021F000B3C7A5A1474A002508ABC864D446012649
:1022000009ACC8C514AB98022705D1CB082807F242
:10221000C7A966002908B2C7C45429002A07ABC859
:10222000A46A352B08ABC8C5B462022C0692C72934
:10223000002D058BCA0C2E05C9C8042F07ABC85644
:1022400065043008ABC8554355003107ABC8255964
:102250000D3207ABC835531A3308ABC8CC941700FE
:102260003408ABC8243562013508ABC88CA8170008
:102270003607ABC84DD5023708ABC8CC544600383A
:1022800007ABC8ADD6023907ABC8B5E4023A06E1E0
:10229000C8C4003B07AAC765A8003C07ABC8A6BADC
:1022A000003D069BC9EC013E07ABC8E4AA043F0809
:1022B000ABC8E89461024006ABC82D5B4108ABC8CF
:1022C0005543A9004208ABC8A8B4D2024308ABC822
:1022D000553255004408ABC8A8642D004508ABC86A
:1022E0008CA8E2004608ABC88CA862044708ABC8BB
:1022F000CDA492004808ABC82435940A4907ABC85E
:10230000AC580D4A07ABC896AA024B08ABC824B517
:10231000920A4C07ABC8C4E6004D08ABC8A4319480
:102320000A4E08ABC8AAA124004F07ABC8555605F2
:102330005008ABC8A8B462045107B3C755561D5224
:1023400008ABC8A8B4920A5307ABC8EDBC00540749
:10235000ABC8ACD8025507ABC824D7085608ABC8E1
:10236000246BA4045708ABC82435860A5808ABC8A8
:1023700024D552015908ABC8245556005A07ABC89A
:10238000CC540E5B06EAC8AC4A5C07ABC8C45C061A
:102390005D06AAC8A86A5E0593CB355F058BC70C9E
:1023A0006006D2CBC4006107A3C82D95046208ABB8
:1023B000C84495D4026306A3C8CD2C6408ABC8A654
:1023C000A592006506A3C855536608ABC8A6B462BB
:1023D000026708ABC7AD2417006808ABC84495ACCA
:1023E000006908ABC86524D3006A08B3C766582ED5
:1023F000006B08ABC8C4B4920A6C07ABC8C8D6005F
:102400006D08A3C8A4A154006E07A3C8A864056FF3
:1024100007A3C855AA027008ABC7A8B46204710824
:10242000ABC72D9564007208A3C8A41523007307D9
:10243000A3C88DBC007408ABC8A51573007507A3AD
:10244000C8242B097607A3C824AB027708A3C824A5
:102450003554007807A3C8A432157908ABC7249572
:10246000E4027A07A3C8CC94067B08B3C7A624EB82
:10247000007C06E9C80C017D09B3C7E4A8628A00A4
:102480007E0794CB25950000000004FFFF0000BFED
:102490000002020303030404050700FF06FF060011
:1024A000010A0216062F200500BD012106B1B1194F
:1024B0002922075BB7495600230A2DB1AB86AA86AD
:1024C000AA0024092DB15BF54E6901250834B1C974
:1024D000B1770026092CB18B29563105270599B70C
:1024E00019280772B153CD00290872B189A9520089
:1024F0002A076BB149D56A2B0A2DB1CD280E995107
:10250000042C075BAF5325002D060CB519012E06D0
:1025100052B119012F0724B38F6D00300873B1AB8E
:102520005C1500310773B14BB235320934B1533108
:10253000C77204330A34B1193969249302340A3456
:10254000B18DAA1A312700350A34B1197A239914AA
:1025500000360A34B1537945991400370A34B11959
:1025600039E6982300380A34B15331A92893023947
:102570000A34B15351A69D14003A076AB119710487
:102580003B0833AFB3912A013C076BB14D75013D58
:10259000081CB319198D003E076BB1C955093F09D5
:1025A00073B16BA60C1300400934B15351DD4801DF
:1025B000410934B153518E2903420A34B15971A4EF
:1025C000284702430934B15351974901440934B1B2
:1025D00059D1391200450934B1197AE53C0246084F
:1025E00034B1197AE51A470934B15351A79906480D
:1025F0000834B189724C33490773B159B1354A086F
:1026000034B16FCBA4004B0A34B1892A4999CA006E
:102610004C0734B1C9DD234D0934B189E388660024
:102620004E0834B1896BA9334F0934B153D1991491
:1026300000500A34B159518E943300510A3CAF53C3
:10264000D15C49A300520934B159518ED40C530ABC
:1026500034B1533165542605540773B159B10B5544
:102660000834B1899E4901560934B189CE24150038
:10267000570934B189E6386200580A34B1893249C1
:10268000156500590873B1495659015A0934B119F1
:1026900039B647005B0773B119B1395C0924B3C976
:1026A00028A38C025D0773B199CD115E0553B96BF8
:1026B0005F060CB11901600652B98901610824B1A5
:1026C0001B51A902620A34B1C97945391200630667
:1026D00023B19B59640834B1AF469469650824B1AD
:1026E00053696405660934B1ADCA99230067092CA2
:1026F000AF1B31A98C06680834B1C9794533690824
:1027000073B1CB4856036A097BAFCDB05415006B4B
:102710000934B1C95592A90C6C0773B1915D036D71
:102720000824B1496948196E0724B159D10C6F08C2
:1027300024B15351260570092CAF59518E94017163
:10274000082CAF1B51A61D720824B15951670073A4
:102750000824B11B1A0D05740934B1CB71E68C0441
:10276000750724B189661A760763B149560577075C
:1027700024B189721C780824B18949AA1879092CD6
:10278000AF89329525007A0824B119B11C017B0864
:1027900073B14D49D6017C05B1B1397D0973B1C919
:1027A00051C514017E0714B94B2A01A00500BD01D3
:1027B000A106B1B14923A20934AF8D23356702A325
:1027C000082CB155715602A40A2DB1C969A6B87278
:1027D00000A50973B149AA5A3101A606A9B151024F
:1027E000A7087BAF9BAA920BA8064BBB4901A90B7C
:1027F0003DAF5B59A5A9924E0BAA061BB75B49AB2F
:10280000071DB38BB201AC0614B31939AD054BB536
:1028100019AE0B3DAF5B79A439755A00AF060CBBFE
:102820001901B0065BB7EB02B10B35B1CD280E999B
:10283000511C02B20662B55106B30662B51969B4FD
:102840000652B95300B5082CAF89E64819B60834CA
:10285000B11B6AF503B70652B51901B80652AF535A
:1028600000B90763B54B320DBA061BB7EB02BB08C4
:102870001DB389A54C00BC093CAFC9CDA87600BDED
:10288000093CAFC92D1DB300BE0A3CAF913AAAA8BE
:102890007600BF0973B1CB30C55401C00934B153C0
:1028A000518E2903C10934B153518E2903C2093411
:1028B000B153518E2903C30934B153518E2903C436
:1028C0000A34B18949C5316500C50934B1932A8EEE
:1028D0002903C60934B11BA91AAA25C70A3CAF535C
:1028E0005197494600C80934B1197AE53C02C90933
:1028F00034B1197AE53C02CA0934B1197AE53C02CF
:10290000CB0934B1197AE53C02CC0773B159B13522
:10291000CD0773B159B135CE0773B159B135CF0772
:1029200073B159B135D00934B19969758D04D108A5
:1029300034B14973A933D20934B153D1991400D3B6
:102940000934B153D1991400D40934B153D1991435
:1029500000D50934B153D1991400D60A34B189494C
:1029600045332900D70824B18949AA18D80934B1B8
:102970001BE9484702D90834B1899E4901DA083475
:10298000B1899E4901DB0834B1899E4901DC0A34D2
:10299000B1891945332900DD0873B149565901DE63
:1029A0000A34B1C92B8E943300DF0934B1535195E9
:1029B0005602E00A34B1CB288EA85401E10934B1A3
:1029C000AD4754AA00E20934B1ADD2884A15E30AF2
:1029D00034B14B2A8EA85401E40934B1ABE1884AE2
:1029E00015E50934B1937244A50AE60824B11B69C0
:1029F000C501E7086BAF9B592500E80A34B1CB2825
:102A0000AA34B202E90934B1AD551A5901EA0A34BF
:102A1000B18B29AA34B202EB0A34B14919AB34B2F2
:102A200002EC0873B1C9495603ED0773B12B653544
:102A3000EE0773B1AB6635EF0873B149595603F031
:102A40000A34B1CBC88A322900F10934B14B2AAD1E
:102A50006806F20A34B1CB28AA289302F30934B1EC
:102A6000AD55944901F40A34B1D35845991400F591
:102A70000A34B14B2AAA289302F60A34B1ABA18AD0
:102A8000322900F7092CB1D37064A800F80924B1E9
:102A90001B69A49100F90934B1CBA834D300FA071B
:102AA00034B16D9A69FB0834B1D3309A69FC0934AA
:102AB000B1AB5134D300FD093CAF6DCA549600FE52
:102AC0000A34AFC92BCA913200FF0A3CAFAB519414
:102AD000A92C0100000004FFFF0000BF020504054F
:102AE00006010406152600F918FA19F904E10AAEE0
:102AF0002258200BD51CF587FFFF7F17002119D521
:102B00001CF587532316588BF417879CFB0011681C
:102B10009E0D920F2F002224D51CF58743A28845D5
:102B2000065164104506516410450651641045066F
:102B30005164104506F9F0FF13002343D51CF587B7
:102B4000EB838C3506596390350659638C45C6383E
:102B50000F8CF1C018171A83AC31C81A83AC31C678
:102B60002263A007C478608C07C61964AC31C81A08
:102B700083AC31061B632C32C622637C78243BD5A0
:102B80001CF5875B2412689A520C91900C114488B2
:102B9000430411011141560984654D6B8925464254
:102BA000594490450431811041CA182490F24030B4
:102BB0002EAD5622F56114002541D51CF587DBE4C6
:102BC00010720A298810A204294490500A11241076
:102BD000E3100A049D4016110412582015956AA8A6
:102BE0001D344821810C524820831022C820848C37
:102BF0004448398598F2E136002641D51CF587EB2B
:102C0000C621A654114411421221241142122163FB
:102C10001141186AC799861A09848842061145909D
:102C2000420219A42042CC21E494428C3145A4F202
:102C300080286990634AF8701B002710D51CF5871F
:102C40005B4292487F1FFE7F06002823D51CF58734
:102C50007B2396675C793548450A92487F924412F7
:102C60004B24B18A241A686289448A02002925D536
:102C70001CF587BD210BB46215492C9148122949D6
:102C8000227D90440A125820058BB35E8143860F43
:102C90000E002A29D51CF5879F2591B6C62043989A
:102CA000128628E40161DC2AD038C488208A0C927C
:102CB0000A218898A1C2111F7E14002B18D51CF57B
:102CC000875F2091BEF580200F08F2805024D2F754
:102CD000E177012C15D51CF587FFFF9D110B34CF33
:102CE000C012499C228963012D0ED51CF587FFCDAA
:102CF00067BE0FFF97002E11D51CF587FFFF2281BD
:102D0000E659907CB805002F29D51CF58783818E64
:102D1000484112491C91C411294822812412482299
:102D20008124124822812412482281448E0FDB0024
:102D30003043D51CF587FBC5A5B592092591420EF8
:102D400031C510530C29A610630A29231042C8105C
:102D50008490310621648C41081183506114428EA5
:102D600021A518628A21A618724821C80493D64A60
:102D7000AE7C783116D51CF58717C8330D2DC548A4
:102D8000202C1012E9FFBF0F0F3221D51CF587F35D
:102D9000C625C55211E61043904024D2208904D2A2
:102DA0005E05E92249C1FC3E9C063328D51CF58707
:102DB000F3C525C55211260953220D9276186AA82B
:102DC000A558451A0A889C61C831C220A654331FF1
:102DD0005E00342FD51CF587474624B07AC65D6D5A
:102DE00004C248206C08B2C6206B0CA206218910D0
:102DF000924621E881501E08E581E048A4F7E13AB7
:102E0000003525D51CF587D3EE788744BAB8144B26
:102E10000D9152CE3844924867C621861C624E38C6
:102E2000A7A5D5CC87073635D51CF587FBC5A5B535
:102E3000920905952212892352C1A8861A32A39CB1
:102E400052C8A10C39C490430C39C490431972483C
:102E500021A98892D64AAE7C7801003721D51CF58D
:102E600087D3EE7871441247A4E288248E48C511B6
:102E7000A938220549A42089E4C323003839D51C88
:102E8000F587F3A629C552110591520E31E410437E
:102E90000E3104114252116429861809451142105D
:102EA00031141A86205208228520528A21C70883AD
:102EB0009852CD7C783935D51CF587F3C5A5B592E8
:102EC000092591420E31E450861C62C821861C629D
:102ED0004A29A70C731C6ACA0412A9382249A29075
:102EE0005482416CA5663E3C01003A16D51CF5871C
:102EF000FF1A81E659907C788940F32C483EDC0229
:102F00003B1CD51CF587FF1A81E659907C7869C473
:102F100002CD33B04412A748E29881013C1BD51C76
:102F2000F5879F0A72C0E20EBBE70A34F08206DE24
:102F30006089648A0F0F023D1BD51CF587BFFD8099
:102F4000200F08F280F830F880200F08F280F8F0A7
:102F50002F023E19D51CF5872F073A6481E8E17BE3
:102F60005633EDB03B671E89E2C3073F25D51CF5FC
:102F70008753A529C59011E61043904004054422CB
:102F800005092CAF8254A43E240934CF82E4C30344
:102F90004043D51CF587FBA629C59011E55085A4B3
:102FA0005186416410350659630C23C818A21032AB
:102FB0008620858C214821630842CA18A3043388DF
:102FC00060648C45C8288110224B3C8224A6163BA5
:102FD0001FAE034138D51CF58717C21C728A05162F
:102FE00068DC08C38D301A09848D31D818449141AA
:102FF000D4284331D4903BE310430E3123114212C5
:1030000021449131161164910F9701423AD51CF574
:1030100087CB4B35E40E21C790530A41A410440AD4
:1030200041A490430C21C7B8D3D033E49442102973
:1030300024114212212411421221049142CA29CFA3
:10304000B8C33E9C07432AD51CF587FBA6A9D4CE5E
:1030500011C614434A418490240C8124D24F9248D3
:103060006241E21443CC11E634A59AF9701E004483
:103070003ED51CF587CB4B35E40E21C710530C39D8
:10308000A510440A41A49044084984904408498406
:10309000904408498490440849A310440A41A490EC
:1030A000430C31C510624E432CA90F2F004522D589
:1030B0001CF587CB0F84F240280F8442227DD11D5E
:1030C000EF9048BFF840280F84F240F8701A00468D
:1030D00016D51CF587D3CF7C8644FA62431D229116
:1030E000FEFBF00C004732D51CF587FBC525D58EBD
:1030F00019E55085A061480A67447A0511521021EC
:10310000051192082189148248218818728839C2D1
:103110001C97143B1FCE034846D51CF587CB049162
:10312000421029049142102904914210290491422D
:10313000102904914210290F84F240280F84421074
:103140002904914210290491421029049142102926
:10315000049142102904914210F9701A004913D5C4
:103160001CF587D30D758D44FAFFC71AEA3E1C077C
:103170004A1CD51CF587EB2C718D44FAFF54302482
:103180000D52501145AD955CF9F006004B40D51C31
:10319000F587C30415421029E410431D5208228408
:1031A00024328822A22812CA4A0CB5C41223822CC7
:1031B000328822A324424822852052CA21A61872AE
:1031C0008821A714820A21897C380D004C11D51C56
:1031D000F587CB24D2FFFFC567BE0FB7014D4ED593
:1031E0001CF587C3630D4212212411524E21E514B0
:1031F000628A21A61872C621671C42C21408216186
:103200000A84105104214414410819631042C6185D
:1032100084101208950821891092082189109208BB
:10322000218910920821897C380D004E4DD51CF55E
:1032300087CB0491421029E590520E29C690720A5C
:1032400029A790820829240C420A09649042C418D4
:10325000A4104115328620850C12482164045208BE
:10326000418594538831851853C829859C5208227A
:10327000852052481A1F4E034F3BD51CF587F3A6F5
:1032800029C59011E6104321520822842832882251
:103290008328328822832832882283283288228316
:1032A0002842861A8520520822863A4618C4946A13
:1032B000E6C3035029D51CF587CB2C35E40E29C66F
:1032C00090530A41A410440A41A410440A39A5901D
:1032D00062CC33EEB04422FDFBF00E005143D51C0E
:1032E000F587F3A629C59011E610530A41A41044AE
:1032F000CA506410450651641045065164104506D5
:103300005164104506516410450841A410440C3125
:1033100015298829D50E1C92C4D4903B1F38005221
:103320003ED51CF587CB2C35E40E21C790530A41BE
:10333000A410440A41A410440A39C490628C3B0D85
:10334000B14408498490440A41A410440C39C4147F
:10335000430E31E49442102904950F97015330D560
:103360001CF587FBA6A9D49011C614330E41E29038
:1033700048248906A287DE81271249223141912201
:103380001429039172C4310E31763E9C075416D530
:103390001CF587C30F08F280200F884522FDFFDF50
:1033A0008717005542D51CF587CB241142122124E2
:1033B00011421221241142122124114212212411FE
:1033C00042122124114212212411421221241142BD
:1033D000122124114212210495420E316698D3D253
:1033E00062E7C37900563BD51CF587C3449141146D
:1033F00019448D421029041133D038E48C430C4118
:10340000C38C44CA48841035C858648C4504614351
:103410008C46C268C899674112891C527C780200A8
:103420005752D51CF587BB848D31D818A38832C676
:1034300028838C41C834283206354619A38851C6E2
:10344000286294218C188504234621615648106215
:1034500084618C18411C23CC31A39C42CA29A49CB2
:10346000420A1A66A461461A66A4614612487C386C
:103470000E005839D51CF587C32491421031D42150
:103480006624424822642C22C8228134E4CC339042
:10349000C0028D430D3122C8228228424822842056
:1034A0006228440A418410453E5C065929D51CF522
:1034B00087C344914112290491420E65C821852495
:1034C000424822642C22C8226234D4CE33AF44FA5C
:1034D000EFC30B005A2ED51CF587CB0F84F2402882
:1034E0000F04482281542490C411092491402A12C7
:1034F00048E28804923858200F08F280200F880F85
:1035000097015B14D51CF5873B2C718944FAFFFFAA
:10351000224BDC870A005C2BD51CF587BD11892462
:103520009148128924914812892491481289249142
:103530004812891C92C8214924924422870C1F0EEC
:10354000015D12D51CF5872B0D7591FEFF7FA8F745
:103550002103005E20D51CF5871784249140E35099
:103560001B813022C81A642842082266A870C287CC
:10357000FF87015F13D51CF587FFFF671F18E381E5
:10358000311E181F1A00601AD51CF5873B818A2945
:10359000E690249258C112899CE690E2C3FF410054
:1035A000612AD51CF5877FE1B0951A2AC2A480480C
:1035B000A4123BCE3C530C290491424E29C498627C
:1035C0000432EFB85406F9701A006233D51CF5873F
:1035D0002324D24F14D5903B4718530C754A2188A9
:1035E00014824821881482482188148248218798AF
:1035F000628831C318774648688CF2E1016321D5AF
:103600001CF5877FC234A51832C2986228240C8921
:10361000F42489E5087444412DA9663E9C0764356D
:10362000D51CF5878324D2A78A20A81D678C3886ED
:10363000985208228520520822852052082285208F
:10364000520822A51C628829C688731C6AAA08F23F
:10365000E13400652CD51CF5877FC134A5582AC2FA
:103660001C62C81988148248792094074279201472
:1036700012492C91A0908C30A7A5D5CC87F3006679
:103680001CD51CF58763A629C55211051123128983
:10369000546BA86324D2FFFBF006006736D51CF5F7
:1036A00087BF5FC838AF3C100A21E510331031E402
:1036B00010430E2905155112534AA54562810EB9D2
:1036C000F30A418490440849849C61CC3B6CA10E70
:1036D000006836D51CF5872B24D26F94440242EE45
:1036E000A0508E29C414431D62C821861C62C821C3
:1036F000861C62C821861C62C821861C62C821867D
:103700001C62C8211F4E036919D51CF5875343124B
:10371000582289E3838C1A16E9FF1A4BDC87E300F1
:103720006A1FD51CF58773231658C5F181554B8B3D
:10373000F4FF53C190244A414594B45672E6036B9A
:1037400035D51CF5872324D2EF94424C31A4944301
:1037500048416494440459241096B112C822832825
:10376000324A22A42052CA21861C628A21A71482CE
:10377000CA87CB006C12D51CF5872B896591FEFF9B
:10378000C7DCF13EDC066D1DD51CF5873F4D0219E7
:10379000A43C20C8036394604219F4FFFFFFFFDFDD
:1037A00087CB006E35D51CF587BF4D46492420E4F4
:1037B0000E0AE598424C31D421861C62C821861C31
:1037C00062C821861C62C821861C62C821861C62D0
:1037D000C821861CF2E136006F30D51CF5877FC109
:1037E000B4B41832C19C528A2187149208218910DE
:1037F00092082189109208218914728829861C1345
:103800004C622AB9F2E105007034D51CF587BF4D32
:1038100044510DB9738431C550A7148248218814CE
:103820008248218814824821881472882986982326
:103830008C71A721228A2291DE0705007132D51CE6
:10384000F587BF5F0441ED3863C431C49442102949
:10385000049142102904914210290491421031E44C
:1038600010434C31469CE350534590485F06721C10
:10387000D51CF587BF4E464924A4F34C0AE418230F
:103880004E81059248FF7D7805007328D51CF58789
:103890007FE1B095DA31E21872C62128A012CF5329
:1038A0000E41138B118998814839C21C87D8421F59
:1038B000CE03741DD51CF58757492471C8A9B9E3F7
:1038C0002D12E9BF22940964AD959AF9701C007518
:1038D00035D51CF587BF4D0E31E410430E31E41091
:1038E000430E31E410430E31E410430E31E4104333
:1038F0000E31E410430E31A59463C2390E355504E0
:10390000F9701B007630D51CF5873F5DD228248DD9
:10391000421031038D43CE38C41044CA48A40C353C
:10392000C858648C450461248C869C79E69548E2ED
:10393000F8F004007743D51CF587BF4C1619639146
:10394000318A20640C42066D0C420619A38C51C4C6
:1039500028431831CA10468C428208438C42821098
:10396000230C63843946985386398594534841849F
:103970009034CCF8701C00782FD51CF587BF4D1003
:1039800029C590430A4984104504592490769E79AC
:103990000516681C6244104506518410440C3155CC
:1039A00021887C380D007939D51CF587BF4D12214F
:1039B0000491421031E41043CE40C31044CA5083F6
:1039C00010450651640C460261240C37C270E7159D
:1039D000582089D40A84AC21CA4A0CBDF2C1007AAD
:1039E0001DD51CF5873FFECC07E9607915A4C1F20F
:1039F000CA7B2094074279207C380D007B21D51C9E
:103A0000F587270E4B4B29F348A40F12775C8126CC
:103A100016392489F48B059EA7586A28037C0ED595
:103A20001CF5875324D2FFFFFFE7017D1FD51CF54E
:103A300087D3C725A6609124D227493CCF72E59150
:103A4000487FB038B3D44A0C7D007E17D51CF5876B
:103A50007FF314515628E301510641AE7CF87F02F2
:103A600000A00BD51CF587FFFF7F1700A118D51C00
:103A7000F58753049A6783E40334E414E91FAC1711
:103A8000C7872700A240D51CF58737482471C80195
:103A90008B4BAA9D129029828461C818231842C6B4
:103AA000088690A108198A90A1C8208A0CA2C8187B
:103AB0008C8841C229610C815028A8A5C58E1B7233
:103AC000F6610100A32BD51CF587FBC5A5B59209AE
:103AD0002495121489144C2C73449248174724F0EF
:103AE00098605618E501418A5025A0F2E13800A4FB
:103AF00029D51CF5878F8B24CE3B2DAD540649E389
:103B00000C34CE40E30C440A492594D4CE334314FC
:103B1000314E50E2C3BF0900A52FD51CF587C34421
:103B2000114210290411431D624622842442C622F8
:103B30008230124643CE3C030973C7632412E68EDB
:103B4000C748A43EBC0000A611D51CF5875324D25B
:103B5000FFF7012791FE9F07A73AD51CF5874BA6D3
:103B600029C55211E610331031229158A281A8299B
:103B700035C4418498430C39C4906308414CA986EC
:103B8000A0892512240E39C3147344414DA9663E01
:103B9000E401A818D51CF587C541862AA2A4224AAB
:103BA0002AA2A841C687FFFF1500A948D51CF587A2
:103BB0005F284E29864829860413082101053246CC
:103BC00050618811081961881146196284498D3045
:103BD000A9112635C208848831C21054186304150F
:103BE000C618020542C620829462C8694A35F3E1CC
:103BF0003C00AA25D51CF587F3C621A6982083850D
:103C0000421A5A4AAD440849A3904446494C2D965D
:103C1000BA3BDE87BF0E00AB2ED51CF587FF5A30AE
:103C2000810D325411241541121924914112194465
:103C3000155154114515515411451541D620830590
:103C4000133E7C0800AC10D51CF587FF4BEE789135
:103C5000DE873F0400AD0ED51CF587FFCD67BE0F94
:103C6000FF9700AE47D51CF5875F284E2986482967
:103C70004609424648810C21C61862464618621A17
:103C8000448C30441A230C91C608432032C21013CE
:103C90001981843186186384318618E390430822A1
:103CA000C50C739A52CD7C380F00AF0ED51CF5872A
:103CB000E34B6D1FFEFF4700B01CD51CF587F3A634
:103CC00025A6541125114212212415519462C8953C
:103CD0000FFF1F04B120D51CF5876F91486F3D2061
:103CE000C803823C201489F4FBC03E20C803823CF8
:103CF000203E5C06B21ED51CF5874BC5A5B5141930
:103D0000448D32E4880492573D02096489FBF0BF78
:103D10000A00B321D51CF5874BC5A5B5D620430EA7
:103D2000779C794712399430231142D25AC9950FA2
:103D3000FFCB00B414D51CF58789304924B0402A44
:103D40008E293EFCFFEB00B53BD51CF5873F4D0EA1
:103D500031E410430E31E410430E31E410430E31D0
:103D6000E410430E31E410430E31E410430E31A54C
:103D70001421C4094B3C40C4124650641012E97D22
:103D80006000B64CD51CF5874B0BB5E38C12A32C09
:103D900031CA12A32C31CA12A32C318C12C3283180
:103DA0004E120321319411831131181183113118EE
:103DB0001183113118118311311811831131181128
:103DC00083113118118311311811E3431900B71110
:103DD000D51CF587FF0D02CDB320F9F0BF0C00B85C
:103DE00013D51CF587FFFFF7C524B1B031064BAEE4
:103DF0002000B913D51CF5875B031677B930869C74
:103E0000FF3EFC2F03BA2AD51CF587FBC521A6D699
:103E100020241142D230230D33D230230D33D22847
:103E20002411429462E8910F843BDE87BF0E00BBF1
:103E30002ED51CF587FF5230810D321611651151B8
:103E40001619649141161924155150110515515038
:103E500011251151D4208305133E7C0C00BC4ED596
:103E60001CF587BD81C2296810830609629C81C642
:103E700019681882861969149246196A10A20619DF
:103E80006B0C124724714412472464A841482284D1
:103E9000A4414A1A438481C61861A021A6438232F4
:103EA00043A842D040210D393EA401BD4DD51CF59B
:103EB00087BD81C2296810730809629C81862168C8
:103EC000989186196994A146196A10A206196B0C7B
:103ED0001247247144124724A2A8214E1A61087285
:103EE0008610649C818619689CE99042D0280491D0
:103EF00032942889A50F6100BE4FD51CF587B9F211
:103F00005019458C51861A841C43C831832C228851
:103F100009658871C420819824064281283246248C
:103F200071441247247190A108196A1092C8286937
:103F30000C83C81061A0318418680855C65065A06C
:103F400081041A727C4803BF28D51CF5874B049A5C
:103F50006741F20127918204965741020B24914256
:103F60000111241031E498701053AA950F2F00C04E
:103F70003ED51C3517B23C04CB141F9C30879C6285
:103F800081051A37C270238C460261630C360651D4
:103F9000641035CA500C35E4CE38C49043CC488404
:103FA00090440851648C450459E4C36500C13FD571
:103FB0001CF5074140D35033507CB0C21C728A05B7
:103FC0001668DC08C38D301A09848D31D8184491E5
:103FD00041D4284331D4903BE310430E31231142A6
:103FE0001221449131161164910F9701C243D51CDF
:103FF000750A7344D3D22AA12832C80A46C0308732
:104000009C6281051A37C270238C460261630C36AC
:104010000651641035CA500C35E4CE38C49043CCF8
:10402000488490440851648C450459E4C36500C336
:1040300042D51CB5210F8971DC2101A940CA073A7C
:10404000CC21A7586081C68D30DC08A39140D818D8
:10405000838D411419448D3214430DB9330E31E46C
:1040600010331221241142141963114116F97019E9
:1040700000C43FD51C751E64A8224A2AA2A4228A25
:104080001A647C50C494248924966739D486186DA8
:1040900008B288206B90B1062189A586DA21861C9A
:1040A000CA0C440A49A30C4506516490453E5C067F
:1040B000C543D51C351AB1BC218413433831841B48
:1040C00061BC12879CC5020B346E84E146186E04F5
:1040D000C2C6186C0CA2C8206A94A1186AC89D7147
:1040E000882187188248198910A206218A8CB1C8B4
:1040F00087CB00C639D51CF587F32C31D4D071A7F6
:10410000A13602692310460261431036443244242A
:1041100033463263104506515B628910924621880E
:104120001482485162182586511F2E03C731D51CB1
:10413000F587FBC525D5CE11C614434A418490248A
:104140000C8124D24F92486241E21443CC11E634F0
:10415000A59A89629258D8188325573A00C826D55F
:104160001CB521D1C003090DFF81501E08E5815007
:1041700048A42FBAE31D12E9171F08E581501E0855
:104180001F1E04C926D51CB522EF30E4C807F781ED
:10419000501E08E5815048A42FBAE31D12E9171FED
:1041A00008E581501E081F1E04CA2DD51CB50A92B1
:1041B00040E3D02A82AC41C60A27A4074279209462
:1041C00007422191BEE88E7748A45F7C2094074285
:1041D00079207C380D00CB2DD51C751E65A4320AC4
:1041E0002AA3A0324A1A65F4074279209407422193
:1041F00091BEE88E7748A45F7C2094074279207CAA
:10420000380D00CC1BD51CF5099344034F1C347C9E
:10421000101AEA1A89F4FF8F35D47D380E00CD18B4
:10422000D51CF51AEFB4E3C807B8A1AE9148FFFF5B
:104230005843DD872701CE1ED51C75129240D3D27C
:104240002A822842C60A27A886BA4622FDFF630DA5
:10425000751F8E03CF1ED51C751E65A4320A2AA3B6
:10426000A0324A1A65F886BA4622FDFF630D751F13
:104270008E03D03BD51CF587D36AB1D41019E790D3
:10428000520E31C590430C39C410440A4164A44213
:10429000462A64A4422152082285A061C821861CB6
:1042A00062A8434A396418D4D052EAC303D157D51F
:1042B0001CB521F088811A22E1A840CA0793205238
:1042C0000822A51C52CA21C518524E21E5145210CD
:1042D000218584414821810C528818831422A842E8
:1042E000C610A490410229848C400A21A890720A29
:1042F00031A610630A39A590530A41A410440A4913
:10430000E3C36900D241D51C3517B2C003CB141FDB
:1043100014D39462C8087388A11029041142141997
:104320004491411419449141141944914114194480
:1043300091411421438D4210290411431D230C6225
:104340004A35F3E101D342D51CF50761C0E28E2B5B
:10435000507C904C538A2123CC218642A4104408DF
:1043600051641045065164104506516410450651CC
:104370006410450651840C350A41A410440C758C18
:10438000308829D5CC8707D444D51C75129240E3D8
:10439000922AA2A841C614CD34A51832C21C6228A4
:1043A000440A418410450651641045065164104585
:1043B00006516410450651641045C850A310440AC4
:1043C00041C450C708839852CD7C78D544D51CB5DC
:1043D0002924A414C671688803C907D834A51832E3
:1043E000C21C6228440A41841045065164104506E7
:1043F0005164104506516410450651641045C8507B
:10440000A310440A41C450C708839852CD7C78D683
:1044100047D51C751964A8224A2AA2A4228A1A64C4
:104420007C804D538A2123CC218642A4104408511C
:1044300064104506516410450651641045065164E8
:1044400010450651840C350A41A410440C758C307B
:104450008829D5CC8707D729D51CF587DF0C731C95
:1044600081882188909288282BB5F3CA330EB11227
:10447000882AA2A0420A1A86A480C487BF0400D852
:104480004DD51CF587F130493262A076DA31C21C75
:104490006228630A31861033C220C40841062943CA
:1044A0009041C8181419831A839041C620641031B2
:1044B0000A19448C420609C38C720A29C610530A91
:1044C000394698D321224A22537C1807D948D51C53
:1044D000F5097444034F1C347C920821891092081A
:1044E00021891092082189109208218910920821AF
:1044F0008910920821891092082189109208218937
:10450000109208218910824A21871833CC6969B139
:10451000F3E13C00DA48D51CF51AEFB4E3880C1F30
:10452000109208218910920821891092082189107F
:1045300092082189109208218910920821891092ED
:104540000821891092082189109208218910824A35
:1045500021871833CC6969B1F3E15100DB4CD51CDC
:10456000751AB1BCD3922AA2A851C60C882442481D
:10457000228424424822842442482284244248221D
:1045800084244248228424424822842442482284AB
:1045900024424822842442482284A052C821C60CC6
:1045A000735A5AEC7C380F00DC4DD51C75995219A2
:1045B0000595515019258D323E9024114212212427
:1045C00011421221241142122124114212212411DC
:1045D000421221241142122124114212212411429B
:1045E000122124114212210495420E316698D3D231
:1045F00062E7C37900DD30D51C350B923CD3CE2366
:10460000317C4088228324520822851CCA90430AA8
:1046100049849044C858449045C468A89D675E8901
:10462000F4DF871700DE29D51CF587CB24D2C58699
:10463000DC7986986208228520520822852052085B
:1046400022851C629E71A72112E97D780700DF4652
:10465000D51CF5874BC5A5B592110591520C39C4EF
:1046600090430C39C410530C29E510711011071137
:10467000910C31A610440A41859044084984904425
:1046800008498410440A11429842823224A4438487
:10469000F9701E00E034D51CF5877E9823964824D7
:1046A000894412193E3087ADD45011260544229515
:1046B000D871E6996248218814724A21C614239061
:1046C00079C7A532C887D300E133D51CF5870931F6
:1046D000472CAF402A92193E3887ADD45011260599
:1046E000442295D871E6996248218814724A21C6FD
:1046F00014239079C7A532C887D300E239D51CF5B9
:10470000870521472CEFB8110823812C32080B456F
:104710007C300E5BA9A1224C0A88442AB1E3CC3339
:10472000C590421029E494428C294620F38E4B65B3
:10473000900FA701E334D51CF587C9F29018C7A1E3
:10474000218E0AA47CA81DB65243459814108954A2
:1047500062C799678A21852052C8298518538C40E1
:10476000E61D97CA201F4E03E437D51CF5873BA3EF
:104770008C5446416514544649A38C0FEE614A356A
:1047800054844901914825769C79A61852082285BF
:104790009C528831C50864DE71A90CF2E13400E551
:1047A00037D51CF587FE80E609319C18C209319C7B
:1047B00089E3837DD84A0D156152402452891D67D3
:1047C0009E298614824821A714624C310299775C95
:1047D0002A837C380D00E63CD51CF5873F4F08390D
:1047E0002898F2802024A0304A28840C45C85084A0
:1047F0008CF240200F88F1C01065904408498490E5
:10480000444821611471C4180F0C72C431A5900F73
:10481000A701E72AD51CF5877FC234A5DA31E294D7
:10482000728621481812E94912CB11E888825A5A37
:10483000EC4031492C4D10C192331C00E836D51C98
:10484000F5877E9823964824894412193E30A6297C
:10485000C55211E61043CE40A41044CA03A13C1037
:10486000CA03A19048628904856484392DAD663EEF
:104870009C07E935D51CF5878940472CAF402A12A3
:10488000293E38A629C55211E61043CE40A4104453
:10489000CA03A13C10CA03A19048628904856484BC
:1048A000392DAD663E9C07EA3AD51CF587BE9823A4
:1048B00096771A6A439045065982880F88694AB1EB
:1048C000548439C4903310290491F240280F84F2A3
:1048D000402824925822412119614E4BAB990FE791
:1048E00001EB38D51CF5873BA38C54464165145425
:1048F0004649A38C0FAE694AB1544639E44C691459
:1049000092467920940742792014128924912081BB
:104910008C30A729D5CC87F300EC1CD51CF58790EB
:10492000882456914812C70C1F14D4B048FFD7589A
:10493000E23E3C0900ED1BD51CF5879890241248F7
:104940006081248E0F326A58A4FF6B2C711F9E0465
:10495000EE20D51CF5877E984312681C6224103621
:104960000661A1880F026A58A4FF6B2C711F8E0389
:10497000EF1FD51CF5873B830C554449459454449F
:1049800051838C0F2A6A58A4FF6B2C711F8E03F081
:1049900039D51CF587C9010F094CB184D6526B0C6F
:1049A00022094B8AA1768C30A62AE41442122124D3
:1049B0001142122124114212212491420E31C5903C
:1049C0006382494CA9663E3CF140D51CF587C5F28F
:1049D000CE10A82112500AA57C289151120908B9BD
:1049E000834239A610530C75882187187288218755
:1049F0001872882187187288218718728821871871
:104A0000728821877CB80D00F239D51CF587BC90DF
:104A10002356914812890C1F1CD3D262C804734AD2
:104A200029861C5248228424424822842442482257
:104A3000842452C821A618724C3089A9E4CA871769
:104A400000F339D51CF5870531472C908205921962
:104A50003E40A6A5C59009E694520C39A49044089E
:104A60004984904408498490440849A490434C31B7
:104A7000E498601253C9950F2F00F43FD51CF587B9
:104A8000BE90239677DC0884914016198485223ED7
:104A900020A6A5C59009E694520C39A49044084973
:104AA00084904408498490440849A490434C31E4DC
:104AB00098601253C9950F2F00F539D51CF587C59D
:104AC000F29010C89D31CE2B1F72A6A5C59009E6A5
:104AD00094520C39A4904408498490440849849025
:104AE000440849A490434C31E498601253C9950F8F
:104AF0002F00F63DD51CF58733A38C544641651431
:104B0000544649A38C0FB0696931648239A51443B6
:104B10000E29241142122124114212212411421281
:104B200029E410530C392698C45472E5C30B00F7DE
:104B30001AD51CF5871F16924422C507F799EF4333
:104B40004E481289141F7E1700F83FD51CF587DFE9
:104B50001693ACA45662C80473CA388690114621D5
:104B60006408420819821032C62084083208216283
:104B7000102A1042CA0883106348392698C4D052BC
:104B8000239445A4F8300E00F93FD51CF587928890
:104B90002512492291448A193E10E410430E31E453
:104BA00010430E31E410430E31E410430E31E41093
:104BB000430E31E410430E31E410534A39269CE38E
:104BC000505345900F2F02FA3CD51CF58796980458
:104BD000164893E3834B0E31E410430E31E4104347
:104BE0000E31E410430E31E410430E31E410430E55
:104BF00031E410430E31A59463C2390E355504F9E2
:104C0000F02200FB43D51CF587BE90041668DC0833
:104C1000841131D8188485123E39C490430C39C4AC
:104C200090430C39C490430C39C490430C39C49060
:104C3000430C39C490430C39C494528E09E738D4DC
:104C40005411E4C36D00FC42D51CF58733A38C548A
:104C500046416514544649A38C0F2639C490430C31
:104C600039C490430C39C490430C39C490430C3977
:104C7000C490430C39C490430C39C494528E09E754
:104C800038D45411E4C36D00FD43D51CF5879890CA
:104C90002412486081248E0F2E498410440A41C496
:104CA00090430C39030D431029430D4214194491CC
:104CB000311809849130DC08C39D57608124522B40
:104CC00010B286282B31F4CA071800FE35D51CF522
:104CD000872324D24F14D5903B4718530C754A2193
:104CE00088148248218814824821881482482187A8
:104CF00098628839C218771A22A22812E97D5000DA
:104D0000FF48D51CF5873B830C55444945945444D2
:104D100051838C0F2649A310440C39C49033D030F2
:104D20000491421029430D421419648D311809A4CD
:104D30008D30DC08C39D576089438E489620838D53
:104D4000505662E8950F060000000004FFFF0000C7
:104D5000704D000800000020240000006C010008D5
:104D6000944D000824000020BC0B000088010008BE
:104D700000A24A0400000000000000000102030439
:104D80000607080900000000000000000000000005
:044D9000000000001F
:04000005080001CD21
:00000001FF
